{
  "_format": "hh-sol-artifact-1",
  "contractName": "EvidenceStorage",
  "sourceName": "contracts/EvidenceStorage.sol",
  "abi": [
    {
      "inputs": [],
      "stateMutability": "nonpayable",
      "type": "constructor"
    },
    {
      "anonymous": false,
      "inputs": [
        {
          "indexed": true,
          "internalType": "uint256",
          "name": "evidenceId",
          "type": "uint256"
        },
        {
          "indexed": true,
          "internalType": "address",
          "name": "sealedBy",
          "type": "address"
        }
      ],
      "name": "EvidenceSealed",
      "type": "event"
    },
    {
      "anonymous": false,
      "inputs": [
        {
          "indexed": true,
          "internalType": "uint256",
          "name": "evidenceId",
          "type": "uint256"
        },
        {
          "indexed": false,
          "internalType": "string",
          "name": "fileHash",
          "type": "string"
        },
        {
          "indexed": true,
          "internalType": "address",
          "name": "uploadedBy",
          "type": "address"
        }
      ],
      "name": "EvidenceStored",
      "type": "event"
    },
    {
      "inputs": [
        {
          "internalType": "address",
          "name": "_user",
          "type": "address"
        },
        {
          "internalType": "string",
          "name": "_role",
          "type": "string"
        }
      ],
      "name": "authorizeUser",
      "outputs": [],
      "stateMutability": "nonpayable",
      "type": "function"
    },
    {
      "inputs": [
        {
          "internalType": "address",
          "name": "",
          "type": "address"
        }
      ],
      "name": "authorizedUsers",
      "outputs": [
        {
          "internalType": "bool",
          "name": "",
          "type": "bool"
        }
      ],
      "stateMutability": "view",
      "type": "function"
    },
    {
      "inputs": [],
      "name": "evidenceCounter",
      "outputs": [
        {
          "internalType": "uint256",
          "name": "",
          "type": "uint256"
        }
      ],
      "stateMutability": "view",
      "type": "function"
    },
    {
      "inputs": [
        {
          "internalType": "uint256",
          "name": "",
          "type": "uint256"
        }
      ],
      "name": "evidences",
      "outputs": [
        {
          "internalType": "string",
          "name": "fileHash",
          "type": "string"
        },
        {
          "internalType": "string",
          "name": "metadata",
          "type": "string"
        },
        {
          "internalType": "address",
          "name": "uploadedBy",
          "type": "address"
        },
        {
          "internalType": "uint256",
          "name": "timestamp",
          "type": "uint256"
        },
        {
          "internalType": "bool",
          "name": "isSealed",
          "type": "bool"
        }
      ],
      "stateMutability": "view",
      "type": "function"
    },
    {
      "inputs": [
        {
          "internalType": "uint256",
          "name": "_evidenceId",
          "type": "uint256"
        }
      ],
      "name": "getEvidence",
      "outputs": [
        {
          "internalType": "string",
          "name": "fileHash",
          "type": "string"
        },
        {
          "internalType": "string",
          "name": "metadata",
          "type": "string"
        },
        {
          "internalType": "address",
          "name": "uploadedBy",
          "type": "address"
        },
        {
          "internalType": "uint256",
          "name": "timestamp",
          "type": "uint256"
        },
        {
          "internalType": "bool",
          "name": "isSealed",
          "type": "bool"
        }
      ],
      "stateMutability": "view",
      "type": "function"
    },
    {
      "inputs": [
        {
          "internalType": "string",
          "name": "",
          "type": "string"
        }
      ],
      "name": "hashToEvidenceId",
      "outputs": [
        {
          "internalType": "uint256",
          "name": "",
          "type": "uint256"
        }
      ],
      "stateMutability": "view",
      "type": "function"
    },
    {
      "inputs": [
        {
          "internalType": "string",
          "name": "_fileHash",
          "type": "string"
        },
        {
          "internalType": "string",
          "name": "_metadata",
          "type": "string"
        }
      ],
      "name": "storeEvidence",
      "outputs": [
        {
          "internalType": "uint256",
          "name": "",
          "type": "uint256"
        }
      ],
      "stateMutability": "nonpayable",
      "type": "function"
    },
    {
      "inputs": [
        {
          "internalType": "address",
          "name": "",
          "type": "address"
        }
      ],
      "name": "userRoles",
      "outputs": [
        {
          "internalType": "string",
          "name": "",
          "type": "string"
        }
      ],
      "stateMutability": "view",
      "type": "function"
    },
    {
      "inputs": [
        {
          "internalType": "string",
          "name": "_fileHash",
          "type": "string"
        }
      ],
      "name": "verifyHash",
      "outputs": [
        {
          "internalType": "bool",
          "name": "exists",
          "type": "bool"
        },
        {
          "internalType": "uint256",
          "name": "evidenceId",
          "type": "uint256"
        }
      ],
      "stateMutability": "view",
      "type": "function"
    }
  ],
  "bytecode": "0x60806040523480156200001157600080fd5b50336000818152600260209081526040808320805460ff1916600117905580518082018252600581526430b236b4b760d91b8184015293835260039091529020906200005e90826200010a565b50620001d6565b634e487b7160e01b600052604160045260246000fd5b600181811c908216806200009057607f821691505b602082108103620000b157634e487b7160e01b600052602260045260246000fd5b50919050565b601f8211156200010557600081815260208120601f850160051c81016020861015620000e05750805b601f850160051c820191505b818110156200010157828155600101620000ec565b5050505b505050565b81516001600160401b0381111562000126576200012662000065565b6200013e816200013784546200007b565b84620000b7565b602080601f8311600181146200017657600084156200015d5750858301515b600019600386901b1c1916600185901b17855562000101565b600085815260208120601f198616915b82811015620001a75788860151825594840194600190910190840162000186565b5085821015620001c65787850151600019600388901b60f8161c191681555b5050505050600190811b01905550565b610d5080620001e66000396000f3fe608060405234801561001057600080fd5b50600436106100935760003560e01c806386fb28131161006657806386fb281314610135578063b87c11141461015f578063c956f14314610168578063d13cc69b1461017b578063dddc9d04146101a657600080fd5b80631828983a146100985780632e4546cd146100d057806353621b69146100f457806374d5e10014610115575b600080fd5b6100bb6100a63660046108a5565b60026020526000908152604090205460ff1681565b60405190151581526020015b60405180910390f35b6100e36100de3660046108c7565b6101bb565b6040516100c7959493929190610930565b610107610102366004610a21565b610308565b6040519081526020016100c7565b6101286101233660046108a5565b6104e3565b6040516100c79190610a85565b610148610143366004610a98565b61057d565b6040805192151583526020830191909152016100c7565b61010760045481565b6100e36101763660046108c7565b6105ac565b610107610189366004610a98565b805160208183018101805160018252928201919093012091525481565b6101b96101b4366004610ad5565b610753565b005b6000602081905290815260409020805481906101d690610b19565b80601f016020809104026020016040519081016040528092919081815260200182805461020290610b19565b801561024f5780601f106102245761010080835404028352916020019161024f565b820191906000526020600020905b81548152906001019060200180831161023257829003601f168201915b50505050509080600101805461026490610b19565b80601f016020809104026020016040519081016040528092919081815260200182805461029090610b19565b80156102dd5780601f106102b2576101008083540402835291602001916102dd565b820191906000526020600020905b8154815290600101906020018083116102c057829003601f168201915b505050506002830154600384015460049094015492936001600160a01b039091169290915060ff1685565b3360009081526002602052604081205460ff1661035d5760405162461bcd60e51b815260206004820152600e60248201526d139bdd08185d5d1a1bdc9a5e995960921b60448201526064015b60405180910390fd5b60018360405161036d9190610b53565b9081526020016040518091039020546000146103c15760405162461bcd60e51b81526020600482015260136024820152724861736820616c72656164792065786973747360681b6044820152606401610354565b600480549060006103d183610b6f565b90915550506040805160a08101825284815260208082018590523382840152426060830152600060808301819052600454815290819052919091208151819061041a9082610be4565b506020820151600182019061042f9082610be4565b506040828101516002830180546001600160a01b0319166001600160a01b03909216919091179055606083015160038301556080909201516004918201805460ff191691151591909117905554905160019061048c908690610b53565b9081526040519081900360200181209190915560045433917fa3aea1a0b6f785bedd63f34420a0eed97ef55a193b08709fe63fc7db5415949a906104d1908790610a85565b60405180910390a35060045492915050565b600360205260009081526040902080546104fc90610b19565b80601f016020809104026020016040519081016040528092919081815260200182805461052890610b19565b80156105755780601f1061054a57610100808354040283529160200191610575565b820191906000526020600020905b81548152906001019060200180831161055857829003601f168201915b505050505081565b6000806001836040516105909190610b53565b9081526020016040518091039020549050600081119150915091565b6060806000806000806000808881526020019081526020016000206040518060a00160405290816000820180546105e290610b19565b80601f016020809104026020016040519081016040528092919081815260200182805461060e90610b19565b801561065b5780601f106106305761010080835404028352916020019161065b565b820191906000526020600020905b81548152906001019060200180831161063e57829003601f168201915b5050505050815260200160018201805461067490610b19565b80601f01602080910402602001604051908101604052809291908181526020018280546106a090610b19565b80156106ed5780601f106106c2576101008083540402835291602001916106ed565b820191906000526020600020905b8154815290600101906020018083116106d057829003601f168201915b505050918352505060028201546001600160a01b0316602080830191909152600383015460408084019190915260049093015460ff1615156060928301528351908401519284015191840151608090940151909b929a5090985091965090945092505050565b3360009081526002602052604090205460ff166107a35760405162461bcd60e51b815260206004820152600e60248201526d139bdd08185d5d1a1bdc9a5e995960921b6044820152606401610354565b6040516430b236b4b760d91b602082015260250160408051601f198184030181528282528051602091820120336000908152600383529290922091926107ea929101610ca4565b604051602081830303815290604052805190602001201461084d5760405162461bcd60e51b815260206004820152601860248201527f4f6e6c792061646d696e2063616e20617574686f72697a6500000000000000006044820152606401610354565b6001600160a01b0382166000908152600260209081526040808320805460ff19166001179055600390915290206108848282610be4565b505050565b80356001600160a01b03811681146108a057600080fd5b919050565b6000602082840312156108b757600080fd5b6108c082610889565b9392505050565b6000602082840312156108d957600080fd5b5035919050565b60005b838110156108fb5781810151838201526020016108e3565b50506000910152565b6000815180845261091c8160208601602086016108e0565b601f01601f19169290920160200192915050565b60a08152600061094360a0830188610904565b82810360208401526109558188610904565b6001600160a01b0396909616604084015250506060810192909252151560809091015292915050565b634e487b7160e01b600052604160045260246000fd5b600082601f8301126109a557600080fd5b813567ffffffffffffffff808211156109c0576109c061097e565b604051601f8301601f19908116603f011681019082821181831017156109e8576109e861097e565b81604052838152866020858801011115610a0157600080fd5b836020870160208301376000602085830101528094505050505092915050565b60008060408385031215610a3457600080fd5b823567ffffffffffffffff80821115610a4c57600080fd5b610a5886838701610994565b93506020850135915080821115610a6e57600080fd5b50610a7b85828601610994565b9150509250929050565b6020815260006108c06020830184610904565b600060208284031215610aaa57600080fd5b813567ffffffffffffffff811115610ac157600080fd5b610acd84828501610994565b949350505050565b60008060408385031215610ae857600080fd5b610af183610889565b9150602083013567ffffffffffffffff811115610b0d57600080fd5b610a7b85828601610994565b600181811c90821680610b2d57607f821691505b602082108103610b4d57634e487b7160e01b600052602260045260246000fd5b50919050565b60008251610b658184602087016108e0565b9190910192915050565b600060018201610b8f57634e487b7160e01b600052601160045260246000fd5b5060010190565b601f82111561088457600081815260208120601f850160051c81016020861015610bbd5750805b601f850160051c820191505b81811015610bdc57828155600101610bc9565b505050505050565b815167ffffffffffffffff811115610bfe57610bfe61097e565b610c1281610c0c8454610b19565b84610b96565b602080601f831160018114610c475760008415610c2f5750858301515b600019600386901b1c1916600185901b178555610bdc565b600085815260208120601f198616915b82811015610c7657888601518255948401946001909101908401610c57565b5085821015610c945787850151600019600388901b60f8161c191681555b5050505050600190811b01905550565b6000808354610cb281610b19565b60018281168015610cca5760018114610cdf57610d0e565b60ff1984168752821515830287019450610d0e565b8760005260208060002060005b85811015610d055781548a820152908401908201610cec565b50505082870194505b5092969550505050505056fea2646970667358221220bcb581fe438fb53a2ebb05a7944e92ec8a4a603c998dd420b3aa2676abb2e76b64736f6c63430008130033",
  "linkReferences": {},
  "deployedLinkReferences": {}
}